{
    "_format": "hh-sol-artifact-1",
    "contractName": "myNFTstore",
    "sourceName": "contracts/myNFTstore.sol",
    "address": "0x8A0ffeB06E609B7a854B84E08255EA42eE4989dD",
    "abi": [
        {
            "inputs": [],
            "stateMutability": "nonpayable",
            "type": "constructor"
        },
        {
            "inputs": [
                {
                    "internalType": "address",
                    "name": "sender",
                    "type": "address"
                },
                {
                    "internalType": "uint256",
                    "name": "tokenId",
                    "type": "uint256"
                },
                {
                    "internalType": "address",
                    "name": "owner",
                    "type": "address"
                }
            ],
            "name": "ERC721IncorrectOwner",
            "type": "error"
        },
        {
            "inputs": [
                {
                    "internalType": "address",
                    "name": "operator",
                    "type": "address"
                },
                {
                    "internalType": "uint256",
                    "name": "tokenId",
                    "type": "uint256"
                }
            ],
            "name": "ERC721InsufficientApproval",
            "type": "error"
        },
        {
            "inputs": [
                {
                    "internalType": "address",
                    "name": "approver",
                    "type": "address"
                }
            ],
            "name": "ERC721InvalidApprover",
            "type": "error"
        },
        {
            "inputs": [
                {
                    "internalType": "address",
                    "name": "operator",
                    "type": "address"
                }
            ],
            "name": "ERC721InvalidOperator",
            "type": "error"
        },
        {
            "inputs": [
                {
                    "internalType": "address",
                    "name": "owner",
                    "type": "address"
                }
            ],
            "name": "ERC721InvalidOwner",
            "type": "error"
        },
        {
            "inputs": [
                {
                    "internalType": "address",
                    "name": "receiver",
                    "type": "address"
                }
            ],
            "name": "ERC721InvalidReceiver",
            "type": "error"
        },
        {
            "inputs": [
                {
                    "internalType": "address",
                    "name": "sender",
                    "type": "address"
                }
            ],
            "name": "ERC721InvalidSender",
            "type": "error"
        },
        {
            "inputs": [
                {
                    "internalType": "uint256",
                    "name": "tokenId",
                    "type": "uint256"
                }
            ],
            "name": "ERC721NonexistentToken",
            "type": "error"
        },
        {
            "anonymous": false,
            "inputs": [
                {
                    "indexed": true,
                    "internalType": "address",
                    "name": "owner",
                    "type": "address"
                },
                {
                    "indexed": true,
                    "internalType": "address",
                    "name": "approved",
                    "type": "address"
                },
                {
                    "indexed": true,
                    "internalType": "uint256",
                    "name": "tokenId",
                    "type": "uint256"
                }
            ],
            "name": "Approval",
            "type": "event"
        },
        {
            "anonymous": false,
            "inputs": [
                {
                    "indexed": true,
                    "internalType": "address",
                    "name": "owner",
                    "type": "address"
                },
                {
                    "indexed": true,
                    "internalType": "address",
                    "name": "operator",
                    "type": "address"
                },
                {
                    "indexed": false,
                    "internalType": "bool",
                    "name": "approved",
                    "type": "bool"
                }
            ],
            "name": "ApprovalForAll",
            "type": "event"
        },
        {
            "anonymous": false,
            "inputs": [
                {
                    "indexed": false,
                    "internalType": "uint256",
                    "name": "_fromTokenId",
                    "type": "uint256"
                },
                {
                    "indexed": false,
                    "internalType": "uint256",
                    "name": "_toTokenId",
                    "type": "uint256"
                }
            ],
            "name": "BatchMetadataUpdate",
            "type": "event"
        },
        {
            "anonymous": false,
            "inputs": [
                {
                    "indexed": false,
                    "internalType": "uint256",
                    "name": "_tokenId",
                    "type": "uint256"
                }
            ],
            "name": "MetadataUpdate",
            "type": "event"
        },
        {
            "anonymous": false,
            "inputs": [
                {
                    "indexed": true,
                    "internalType": "uint256",
                    "name": "tokenId",
                    "type": "uint256"
                },
                {
                    "indexed": true,
                    "internalType": "address",
                    "name": "seller",
                    "type": "address"
                },
                {
                    "indexed": false,
                    "internalType": "uint256",
                    "name": "price",
                    "type": "uint256"
                }
            ],
            "name": "NFTResold",
            "type": "event"
        },
        {
            "anonymous": false,
            "inputs": [
                {
                    "indexed": true,
                    "internalType": "uint256",
                    "name": "tokenId",
                    "type": "uint256"
                },
                {
                    "indexed": true,
                    "internalType": "address",
                    "name": "seller",
                    "type": "address"
                },
                {
                    "indexed": true,
                    "internalType": "address",
                    "name": "buyer",
                    "type": "address"
                },
                {
                    "indexed": false,
                    "internalType": "uint256",
                    "name": "price",
                    "type": "uint256"
                }
            ],
            "name": "SaleExecuted",
            "type": "event"
        },
        {
            "anonymous": false,
            "inputs": [
                {
                    "indexed": true,
                    "internalType": "uint256",
                    "name": "tokenId",
                    "type": "uint256"
                },
                {
                    "indexed": true,
                    "internalType": "address",
                    "name": "creator",
                    "type": "address"
                },
                {
                    "indexed": false,
                    "internalType": "string",
                    "name": "tokenURI",
                    "type": "string"
                },
                {
                    "indexed": false,
                    "internalType": "uint256",
                    "name": "price",
                    "type": "uint256"
                }
            ],
            "name": "TokenCreated",
            "type": "event"
        },
        {
            "anonymous": false,
            "inputs": [
                {
                    "indexed": true,
                    "internalType": "address",
                    "name": "from",
                    "type": "address"
                },
                {
                    "indexed": true,
                    "internalType": "address",
                    "name": "to",
                    "type": "address"
                },
                {
                    "indexed": true,
                    "internalType": "uint256",
                    "name": "tokenId",
                    "type": "uint256"
                }
            ],
            "name": "Transfer",
            "type": "event"
        },
        {
            "inputs": [
                {
                    "internalType": "address",
                    "name": "to",
                    "type": "address"
                },
                {
                    "internalType": "uint256",
                    "name": "tokenId",
                    "type": "uint256"
                }
            ],
            "name": "approve",
            "outputs": [],
            "stateMutability": "nonpayable",
            "type": "function"
        },
        {
            "inputs": [
                {
                    "internalType": "address",
                    "name": "owner",
                    "type": "address"
                }
            ],
            "name": "balanceOf",
            "outputs": [
                {
                    "internalType": "uint256",
                    "name": "",
                    "type": "uint256"
                }
            ],
            "stateMutability": "view",
            "type": "function"
        },
        {
            "inputs": [
                {
                    "internalType": "string",
                    "name": "_tokenURI",
                    "type": "string"
                },
                {
                    "internalType": "uint256",
                    "name": "_price",
                    "type": "uint256"
                }
            ],
            "name": "createToken",
            "outputs": [
                {
                    "internalType": "uint256",
                    "name": "",
                    "type": "uint256"
                }
            ],
            "stateMutability": "nonpayable",
            "type": "function"
        },
        {
            "inputs": [
                {
                    "internalType": "uint256",
                    "name": "tokenId",
                    "type": "uint256"
                }
            ],
            "name": "executeSale",
            "outputs": [],
            "stateMutability": "payable",
            "type": "function"
        },
        {
            "inputs": [],
            "name": "getAllListedNFTs",
            "outputs": [
                {
                    "components": [
                        {
                            "internalType": "uint256",
                            "name": "tokenId",
                            "type": "uint256"
                        },
                        {
                            "internalType": "address payable",
                            "name": "owner",
                            "type": "address"
                        },
                        {
                            "internalType": "address payable",
                            "name": "seller",
                            "type": "address"
                        },
                        {
                            "internalType": "address",
                            "name": "creator",
                            "type": "address"
                        },
                        {
                            "internalType": "uint256",
                            "name": "price",
                            "type": "uint256"
                        }
                    ],
                    "internalType": "struct myNFTstore.NFTListing[]",
                    "name": "",
                    "type": "tuple[]"
                }
            ],
            "stateMutability": "view",
            "type": "function"
        },
        {
            "inputs": [
                {
                    "internalType": "uint256",
                    "name": "tokenId",
                    "type": "uint256"
                }
            ],
            "name": "getApproved",
            "outputs": [
                {
                    "internalType": "address",
                    "name": "",
                    "type": "address"
                }
            ],
            "stateMutability": "view",
            "type": "function"
        },
        {
            "inputs": [],
            "name": "getBoughtNFTs",
            "outputs": [
                {
                    "internalType": "uint256[]",
                    "name": "",
                    "type": "uint256[]"
                }
            ],
            "stateMutability": "view",
            "type": "function"
        },
        {
            "inputs": [],
            "name": "getCreatedNFTs",
            "outputs": [
                {
                    "internalType": "uint256[]",
                    "name": "",
                    "type": "uint256[]"
                }
            ],
            "stateMutability": "view",
            "type": "function"
        },
        {
            "inputs": [],
            "name": "getCurrentTokenId",
            "outputs": [
                {
                    "internalType": "uint256",
                    "name": "",
                    "type": "uint256"
                }
            ],
            "stateMutability": "view",
            "type": "function"
        },
        {
            "inputs": [],
            "name": "getListingFeePercent",
            "outputs": [
                {
                    "internalType": "uint256",
                    "name": "",
                    "type": "uint256"
                }
            ],
            "stateMutability": "view",
            "type": "function"
        },
        {
            "inputs": [],
            "name": "getMyNFTs",
            "outputs": [
                {
                    "components": [
                        {
                            "internalType": "uint256",
                            "name": "tokenId",
                            "type": "uint256"
                        },
                        {
                            "internalType": "address payable",
                            "name": "owner",
                            "type": "address"
                        },
                        {
                            "internalType": "address payable",
                            "name": "seller",
                            "type": "address"
                        },
                        {
                            "internalType": "address",
                            "name": "creator",
                            "type": "address"
                        },
                        {
                            "internalType": "uint256",
                            "name": "price",
                            "type": "uint256"
                        }
                    ],
                    "internalType": "struct myNFTstore.NFTListing[]",
                    "name": "",
                    "type": "tuple[]"
                }
            ],
            "stateMutability": "view",
            "type": "function"
        },
        {
            "inputs": [
                {
                    "internalType": "uint256",
                    "name": "_tokenId",
                    "type": "uint256"
                }
            ],
            "name": "getNFTListing",
            "outputs": [
                {
                    "components": [
                        {
                            "internalType": "uint256",
                            "name": "tokenId",
                            "type": "uint256"
                        },
                        {
                            "internalType": "address payable",
                            "name": "owner",
                            "type": "address"
                        },
                        {
                            "internalType": "address payable",
                            "name": "seller",
                            "type": "address"
                        },
                        {
                            "internalType": "address",
                            "name": "creator",
                            "type": "address"
                        },
                        {
                            "internalType": "uint256",
                            "name": "price",
                            "type": "uint256"
                        }
                    ],
                    "internalType": "struct myNFTstore.NFTListing",
                    "name": "",
                    "type": "tuple"
                }
            ],
            "stateMutability": "view",
            "type": "function"
        },
        {
            "inputs": [
                {
                    "internalType": "address",
                    "name": "owner",
                    "type": "address"
                },
                {
                    "internalType": "address",
                    "name": "operator",
                    "type": "address"
                }
            ],
            "name": "isApprovedForAll",
            "outputs": [
                {
                    "internalType": "bool",
                    "name": "",
                    "type": "bool"
                }
            ],
            "stateMutability": "view",
            "type": "function"
        },
        {
            "inputs": [],
            "name": "listingFeePercent",
            "outputs": [
                {
                    "internalType": "uint256",
                    "name": "",
                    "type": "uint256"
                }
            ],
            "stateMutability": "view",
            "type": "function"
        },
        {
            "inputs": [],
            "name": "marketplaceOwner",
            "outputs": [
                {
                    "internalType": "address payable",
                    "name": "",
                    "type": "address"
                }
            ],
            "stateMutability": "view",
            "type": "function"
        },
        {
            "inputs": [],
            "name": "name",
            "outputs": [
                {
                    "internalType": "string",
                    "name": "",
                    "type": "string"
                }
            ],
            "stateMutability": "view",
            "type": "function"
        },
        {
            "inputs": [
                {
                    "internalType": "uint256",
                    "name": "tokenId",
                    "type": "uint256"
                }
            ],
            "name": "ownerOf",
            "outputs": [
                {
                    "internalType": "address",
                    "name": "",
                    "type": "address"
                }
            ],
            "stateMutability": "view",
            "type": "function"
        },
        {
            "inputs": [
                {
                    "internalType": "uint256",
                    "name": "tokenId",
                    "type": "uint256"
                }
            ],
            "name": "resellNFT",
            "outputs": [],
            "stateMutability": "nonpayable",
            "type": "function"
        },
        {
            "inputs": [
                {
                    "internalType": "address",
                    "name": "from",
                    "type": "address"
                },
                {
                    "internalType": "address",
                    "name": "to",
                    "type": "address"
                },
                {
                    "internalType": "uint256",
                    "name": "tokenId",
                    "type": "uint256"
                }
            ],
            "name": "safeTransferFrom",
            "outputs": [],
            "stateMutability": "nonpayable",
            "type": "function"
        },
        {
            "inputs": [
                {
                    "internalType": "address",
                    "name": "from",
                    "type": "address"
                },
                {
                    "internalType": "address",
                    "name": "to",
                    "type": "address"
                },
                {
                    "internalType": "uint256",
                    "name": "tokenId",
                    "type": "uint256"
                },
                {
                    "internalType": "bytes",
                    "name": "data",
                    "type": "bytes"
                }
            ],
            "name": "safeTransferFrom",
            "outputs": [],
            "stateMutability": "nonpayable",
            "type": "function"
        },
        {
            "inputs": [
                {
                    "internalType": "address",
                    "name": "operator",
                    "type": "address"
                },
                {
                    "internalType": "bool",
                    "name": "approved",
                    "type": "bool"
                }
            ],
            "name": "setApprovalForAll",
            "outputs": [],
            "stateMutability": "nonpayable",
            "type": "function"
        },
        {
            "inputs": [
                {
                    "internalType": "bytes4",
                    "name": "interfaceId",
                    "type": "bytes4"
                }
            ],
            "name": "supportsInterface",
            "outputs": [
                {
                    "internalType": "bool",
                    "name": "",
                    "type": "bool"
                }
            ],
            "stateMutability": "view",
            "type": "function"
        },
        {
            "inputs": [],
            "name": "symbol",
            "outputs": [
                {
                    "internalType": "string",
                    "name": "",
                    "type": "string"
                }
            ],
            "stateMutability": "view",
            "type": "function"
        },
        {
            "inputs": [
                {
                    "internalType": "uint256",
                    "name": "tokenId",
                    "type": "uint256"
                }
            ],
            "name": "tokenURI",
            "outputs": [
                {
                    "internalType": "string",
                    "name": "",
                    "type": "string"
                }
            ],
            "stateMutability": "view",
            "type": "function"
        },
        {
            "inputs": [
                {
                    "internalType": "address",
                    "name": "from",
                    "type": "address"
                },
                {
                    "internalType": "address",
                    "name": "to",
                    "type": "address"
                },
                {
                    "internalType": "uint256",
                    "name": "tokenId",
                    "type": "uint256"
                }
            ],
            "name": "transferFrom",
            "outputs": [],
            "stateMutability": "nonpayable",
            "type": "function"
        },
        {
            "inputs": [
                {
                    "internalType": "uint256",
                    "name": "_listingFeePercent",
                    "type": "uint256"
                }
            ],
            "name": "updateListingFeePercent",
            "outputs": [],
            "stateMutability": "nonpayable",
            "type": "function"
        }
    ],
    "bytecode": "0x608060405260146008553480156200001657600080fd5b506040518060400160405280600a81526020017f6d794e465473746f7265000000000000000000000000000000000000000000008152506040518060400160405280600481526020017f4e4654530000000000000000000000000000000000000000000000000000000081525081600090816200009491906200036a565b508060019081620000a691906200036a565b50505033600760006101000a81548173ffffffffffffffffffffffffffffffffffffffff021916908373ffffffffffffffffffffffffffffffffffffffff16021790555062000451565b600081519050919050565b7f4e487b7100000000000000000000000000000000000000000000000000000000600052604160045260246000fd5b7f4e487b7100000000000000000000000000000000000000000000000000000000600052602260045260246000fd5b600060028204905060018216806200017257607f821691505b6020821081036200018857620001876200012a565b5b50919050565b60008190508160005260206000209050919050565b60006020601f8301049050919050565b600082821b905092915050565b600060088302620001f27fffffffffffffffffffffffffffffffffffffffffffffffffffffffffffffffff82620001b3565b620001fe8683620001b3565b95508019841693508086168417925050509392505050565b6000819050919050565b6000819050919050565b60006200024b620002456200023f8462000216565b62000220565b62000216565b9050919050565b6000819050919050565b62000267836200022a565b6200027f620002768262000252565b848454620001c0565b825550505050565b600090565b6200029662000287565b620002a38184846200025c565b505050565b5b81811015620002cb57620002bf6000826200028c565b600181019050620002a9565b5050565b601f8211156200031a57620002e4816200018e565b620002ef84620001a3565b81016020851015620002ff578190505b620003176200030e85620001a3565b830182620002a8565b50505b505050565b600082821c905092915050565b60006200033f600019846008026200031f565b1980831691505092915050565b60006200035a83836200032c565b9150826002028217905092915050565b6200037582620000f0565b67ffffffffffffffff811115620003915762000390620000fb565b5b6200039d825462000159565b620003aa828285620002cf565b600060209050601f831160018114620003e25760008415620003cd578287015190505b620003d985826200034c565b86555062000449565b601f198416620003f2866200018e565b60005b828110156200041c57848901518255600182019150602085019450602081019050620003f5565b868310156200043c578489015162000438601f8916826200032c565b8355505b6001600288020188555050505b505050505050565b6142d580620004616000396000f3fe6080604052600436106101815760003560e01c8063650025a0116100d1578063a22cb4651161008a578063b8fec12711610064578063b8fec12714610587578063c87b56dd146105b2578063cef95441146105ef578063e985e9c51461061a57610181565b8063a22cb4651461050c578063ac6a918514610535578063b88d4fde1461055e57610181565b8063650025a0146103f757806370a082311461042257806371c89c401461045f57806372b3b6201461048857806395d89b41146104c55780639b1225c4146104f057610181565b806323b872dd1161013e578063561892361161011857806356189236146103395780636151ff2e14610364578063629cb2e41461038f5780636352211e146103ba57610181565b806323b872dd146102bc57806342842e0e146102e55780634b58ffaa1461030e57610181565b806301ffc9a71461018657806306fc1245146101c357806306fdde03146101ee578063081812fc14610219578063095ea7b3146102565780630ea59c4b1461027f575b600080fd5b34801561019257600080fd5b506101ad60048036038101906101a89190613040565b610657565b6040516101ba9190613088565b60405180910390f35b3480156101cf57600080fd5b506101d86106b8565b6040516101e591906130bc565b60405180910390f35b3480156101fa57600080fd5b506102036106c2565b6040516102109190613167565b60405180910390f35b34801561022557600080fd5b50610240600480360381019061023b91906131b5565b610754565b60405161024d9190613223565b60405180910390f35b34801561026257600080fd5b5061027d6004803603810190610278919061326a565b610770565b005b34801561028b57600080fd5b506102a660048036038101906102a191906131b5565b610786565b6040516102b39190613351565b60405180910390f35b3480156102c857600080fd5b506102e360048036038101906102de919061336c565b6108c9565b005b3480156102f157600080fd5b5061030c6004803603810190610307919061336c565b6109cb565b005b34801561031a57600080fd5b506103236109eb565b60405161033091906134d6565b60405180910390f35b34801561034557600080fd5b5061034e610be8565b60405161035b91906130bc565b60405180910390f35b34801561037057600080fd5b50610379610bf2565b60405161038691906130bc565b60405180910390f35b34801561039b57600080fd5b506103a4610bf8565b6040516103b191906134d6565b60405180910390f35b3480156103c657600080fd5b506103e160048036038101906103dc91906131b5565b610ffc565b6040516103ee9190613223565b60405180910390f35b34801561040357600080fd5b5061040c61100e565b6040516104199190613507565b60405180910390f35b34801561042e57600080fd5b5061044960048036038101906104449190613522565b611034565b60405161045691906130bc565b60405180910390f35b34801561046b57600080fd5b50610486600480360381019061048191906131b5565b6110ee565b005b34801561049457600080fd5b506104af60048036038101906104aa9190613684565b611294565b6040516104bc91906130bc565b60405180910390f35b3480156104d157600080fd5b506104da6113d7565b6040516104e79190613167565b60405180910390f35b61050a600480360381019061050591906131b5565b611469565b005b34801561051857600080fd5b50610533600480360381019061052e919061370c565b6117c1565b005b34801561054157600080fd5b5061055c600480360381019061055791906131b5565b6117d7565b005b34801561056a57600080fd5b50610585600480360381019061058091906137ed565b611871565b005b34801561059357600080fd5b5061059c61188e565b6040516105a9919061391f565b60405180910390f35b3480156105be57600080fd5b506105d960048036038101906105d491906131b5565b611923565b6040516105e69190613167565b60405180910390f35b3480156105fb57600080fd5b50610604611a36565b604051610611919061391f565b60405180910390f35b34801561062657600080fd5b50610641600480360381019061063c9190613941565b611acb565b60405161064e9190613088565b60405180910390f35b6000634906490660e01b7bffffffffffffffffffffffffffffffffffffffffffffffffffffffff1916827bffffffffffffffffffffffffffffffffffffffffffffffffffffffff191614806106b157506106b082611b5f565b5b9050919050565b6000600854905090565b6060600080546106d1906139b0565b80601f01602080910402602001604051908101604052809291908181526020018280546106fd906139b0565b801561074a5780601f1061071f5761010080835404028352916020019161074a565b820191906000526020600020905b81548152906001019060200180831161072d57829003601f168201915b5050505050905090565b600061075f82611c41565b5061076982611cc9565b9050919050565b610782828261077d611d06565b611d0e565b5050565b61078e612f63565b600b60008381526020019081526020016000206040518060a0016040529081600082015481526020016001820160009054906101000a900473ffffffffffffffffffffffffffffffffffffffff1673ffffffffffffffffffffffffffffffffffffffff1673ffffffffffffffffffffffffffffffffffffffff1681526020016002820160009054906101000a900473ffffffffffffffffffffffffffffffffffffffff1673ffffffffffffffffffffffffffffffffffffffff1673ffffffffffffffffffffffffffffffffffffffff1681526020016003820160009054906101000a900473ffffffffffffffffffffffffffffffffffffffff1673ffffffffffffffffffffffffffffffffffffffff1673ffffffffffffffffffffffffffffffffffffffff1681526020016004820154815250509050919050565b600073ffffffffffffffffffffffffffffffffffffffff168273ffffffffffffffffffffffffffffffffffffffff160361093b5760006040517f64a0ae920000000000000000000000000000000000000000000000000000000081526004016109329190613223565b60405180910390fd5b600061094f838361094a611d06565b611d20565b90508373ffffffffffffffffffffffffffffffffffffffff168173ffffffffffffffffffffffffffffffffffffffff16146109c5578382826040517f64283d7b0000000000000000000000000000000000000000000000000000000081526004016109bc939291906139e1565b60405180910390fd5b50505050565b6109e683838360405180602001604052806000815250611871565b505050565b60606000600954905060008167ffffffffffffffff811115610a1057610a0f613559565b5b604051908082528060200260200182016040528015610a4957816020015b610a36612f63565b815260200190600190039081610a2e5790505b5090506000805b83811015610bde576000600182610a679190613a47565b90506000600b60008381526020019081526020016000209050806040518060a0016040529081600082015481526020016001820160009054906101000a900473ffffffffffffffffffffffffffffffffffffffff1673ffffffffffffffffffffffffffffffffffffffff1673ffffffffffffffffffffffffffffffffffffffff1681526020016002820160009054906101000a900473ffffffffffffffffffffffffffffffffffffffff1673ffffffffffffffffffffffffffffffffffffffff1673ffffffffffffffffffffffffffffffffffffffff1681526020016003820160009054906101000a900473ffffffffffffffffffffffffffffffffffffffff1673ffffffffffffffffffffffffffffffffffffffff1673ffffffffffffffffffffffffffffffffffffffff168152602001600482015481525050858581518110610bb557610bb4613a7b565b5b6020026020010181905250600184610bcd9190613a47565b935050508080600101915050610a50565b5081935050505090565b6000600954905090565b60085481565b60606000600954905060008060005b83811015610d19573373ffffffffffffffffffffffffffffffffffffffff16600b6000600184610c379190613a47565b815260200190815260200160002060010160009054906101000a900473ffffffffffffffffffffffffffffffffffffffff1673ffffffffffffffffffffffffffffffffffffffff161480610cf857503373ffffffffffffffffffffffffffffffffffffffff16600b6000600184610cae9190613a47565b815260200190815260200160002060020160009054906101000a900473ffffffffffffffffffffffffffffffffffffffff1673ffffffffffffffffffffffffffffffffffffffff16145b15610d0c578280610d0890613aaa565b9350505b8080600101915050610c07565b5060008267ffffffffffffffff811115610d3657610d35613559565b5b604051908082528060200260200182016040528015610d6f57816020015b610d5c612f63565b815260200190600190039081610d545790505b50905060005b84811015610ff1573373ffffffffffffffffffffffffffffffffffffffff16600b6000600184610da59190613a47565b815260200190815260200160002060010160009054906101000a900473ffffffffffffffffffffffffffffffffffffffff1673ffffffffffffffffffffffffffffffffffffffff161480610e6657503373ffffffffffffffffffffffffffffffffffffffff16600b6000600184610e1c9190613a47565b815260200190815260200160002060020160009054906101000a900473ffffffffffffffffffffffffffffffffffffffff1673ffffffffffffffffffffffffffffffffffffffff16145b15610fe4576000600182610e7a9190613a47565b90506000600b60008381526020019081526020016000209050806040518060a0016040529081600082015481526020016001820160009054906101000a900473ffffffffffffffffffffffffffffffffffffffff1673ffffffffffffffffffffffffffffffffffffffff1673ffffffffffffffffffffffffffffffffffffffff1681526020016002820160009054906101000a900473ffffffffffffffffffffffffffffffffffffffff1673ffffffffffffffffffffffffffffffffffffffff1673ffffffffffffffffffffffffffffffffffffffff1681526020016003820160009054906101000a900473ffffffffffffffffffffffffffffffffffffffff1673ffffffffffffffffffffffffffffffffffffffff1673ffffffffffffffffffffffffffffffffffffffff168152602001600482015481525050848681518110610fc857610fc7613a7b565b5b60200260200101819052508480610fde90613aaa565b95505050505b8080600101915050610d75565b508094505050505090565b600061100782611c41565b9050919050565b600760009054906101000a900473ffffffffffffffffffffffffffffffffffffffff1681565b60008073ffffffffffffffffffffffffffffffffffffffff168273ffffffffffffffffffffffffffffffffffffffff16036110a75760006040517f89c62b6400000000000000000000000000000000000000000000000000000000815260040161109e9190613223565b60405180910390fd5b600360008373ffffffffffffffffffffffffffffffffffffffff1673ffffffffffffffffffffffffffffffffffffffff168152602001908152602001600020549050919050565b6000600b600083815260200190815260200160002090503373ffffffffffffffffffffffffffffffffffffffff1661112583610ffc565b73ffffffffffffffffffffffffffffffffffffffff161461117b576040517f08c379a000000000000000000000000000000000000000000000000000000000815260040161117290613b64565b60405180910390fd5b60008160040154905061118e3384611f3a565b808260040181905550338260020160006101000a81548173ffffffffffffffffffffffffffffffffffffffff021916908373ffffffffffffffffffffffffffffffffffffffff160217905550600c60003373ffffffffffffffffffffffffffffffffffffffff1673ffffffffffffffffffffffffffffffffffffffff1681526020019081526020016000208390806001815401808255809150506001900390600052602060002001600090919091909150553373ffffffffffffffffffffffffffffffffffffffff16837fae3561baf629f6ef13f993e8899f1e41b772f13626bcd7d16e5d3e590ae207b58360405161128791906130bc565b60405180910390a3505050565b60008082116112d8576040517f08c379a00000000000000000000000000000000000000000000000000000000081526004016112cf90613bd0565b60405180910390fd5b600960008154809291906112eb90613aaa565b919050555060006009549050611301338261203e565b61130b818561205c565b6113168184336120b8565b600c60003373ffffffffffffffffffffffffffffffffffffffff1673ffffffffffffffffffffffffffffffffffffffff1681526020019081526020016000208190806001815401808255809150506001900390600052602060002001600090919091909150553373ffffffffffffffffffffffffffffffffffffffff16817f463ec2a62c46678a81e23cde640446ca4b512f102bb3309cf5a3e2a4ae83146486866040516113c5929190613bf0565b60405180910390a38091505092915050565b6060600180546113e6906139b0565b80601f0160208091040260200160405190810160405280929190818152602001828054611412906139b0565b801561145f5780601f106114345761010080835404028352916020019161145f565b820191906000526020600020905b81548152906001019060200180831161144257829003601f168201915b5050505050905090565b6000600b6000838152602001908152602001600020905060008160040154905060008260020160009054906101000a900473ffffffffffffffffffffffffffffffffffffffff1690508134146114f4576040517f08c379a00000000000000000000000000000000000000000000000000000000081526004016114eb90613c92565b60405180910390fd5b3373ffffffffffffffffffffffffffffffffffffffff168173ffffffffffffffffffffffffffffffffffffffff1603611562576040517f08c379a000000000000000000000000000000000000000000000000000000000815260040161155990613cfe565b60405180910390fd5b61156c8185612225565b611577813386612329565b338360010160006101000a81548173ffffffffffffffffffffffffffffffffffffffff021916908373ffffffffffffffffffffffffffffffffffffffff160217905550338360020160006101000a81548173ffffffffffffffffffffffffffffffffffffffff021916908373ffffffffffffffffffffffffffffffffffffffff160217905550600a600081548092919061161090613aaa565b9190505550600d60003373ffffffffffffffffffffffffffffffffffffffff1673ffffffffffffffffffffffffffffffffffffffff168152602001908152602001600020849080600181540180825580915050600190039060005260206000200160009091909190915055600060646008548461168d9190613d1e565b6116979190613d8f565b9050600760009054906101000a900473ffffffffffffffffffffffffffffffffffffffff1673ffffffffffffffffffffffffffffffffffffffff166108fc829081150290604051600060405180830381858888f19350505050158015611701573d6000803e3d6000fd5b508173ffffffffffffffffffffffffffffffffffffffff166108fc82346117289190613dc0565b9081150290604051600060405180830381858888f19350505050158015611753573d6000803e3d6000fd5b503373ffffffffffffffffffffffffffffffffffffffff168273ffffffffffffffffffffffffffffffffffffffff16867fb9c3a73b1f67f4557f700342aae9b45183caf9cde5e2602afecb1179cd16f757866040516117b291906130bc565b60405180910390a45050505050565b6117d36117cc611d06565b8383612496565b5050565b600760009054906101000a900473ffffffffffffffffffffffffffffffffffffffff1673ffffffffffffffffffffffffffffffffffffffff163373ffffffffffffffffffffffffffffffffffffffff1614611867576040517f08c379a000000000000000000000000000000000000000000000000000000000815260040161185e90613e66565b60405180910390fd5b8060088190555050565b61187c8484846108c9565b61188884848484612605565b50505050565b6060600d60003373ffffffffffffffffffffffffffffffffffffffff1673ffffffffffffffffffffffffffffffffffffffff16815260200190815260200160002080548060200260200160405190810160405280929190818152602001828054801561191957602002820191906000526020600020905b815481526020019060010190808311611905575b5050505050905090565b606061192e82611c41565b50600060066000848152602001908152602001600020805461194f906139b0565b80601f016020809104026020016040519081016040528092919081815260200182805461197b906139b0565b80156119c85780601f1061199d576101008083540402835291602001916119c8565b820191906000526020600020905b8154815290600101906020018083116119ab57829003601f168201915b5050505050905060006119d96127bc565b905060008151036119ee578192505050611a31565b600082511115611a23578082604051602001611a0b929190613ec2565b60405160208183030381529060405292505050611a31565b611a2c846127d3565b925050505b919050565b6060600c60003373ffffffffffffffffffffffffffffffffffffffff1673ffffffffffffffffffffffffffffffffffffffff168152602001908152602001600020805480602002602001604051908101604052809291908181526020018280548015611ac157602002820191906000526020600020905b815481526020019060010190808311611aad575b5050505050905090565b6000600560008473ffffffffffffffffffffffffffffffffffffffff1673ffffffffffffffffffffffffffffffffffffffff16815260200190815260200160002060008373ffffffffffffffffffffffffffffffffffffffff1673ffffffffffffffffffffffffffffffffffffffff16815260200190815260200160002060009054906101000a900460ff16905092915050565b60007f80ac58cd000000000000000000000000000000000000000000000000000000007bffffffffffffffffffffffffffffffffffffffffffffffffffffffff1916827bffffffffffffffffffffffffffffffffffffffffffffffffffffffff19161480611c2a57507f5b5e139f000000000000000000000000000000000000000000000000000000007bffffffffffffffffffffffffffffffffffffffffffffffffffffffff1916827bffffffffffffffffffffffffffffffffffffffffffffffffffffffff1916145b80611c3a5750611c398261283c565b5b9050919050565b600080611c4d836128a6565b9050600073ffffffffffffffffffffffffffffffffffffffff168173ffffffffffffffffffffffffffffffffffffffff1603611cc057826040517f7e273289000000000000000000000000000000000000000000000000000000008152600401611cb791906130bc565b60405180910390fd5b80915050919050565b60006004600083815260200190815260200160002060009054906101000a900473ffffffffffffffffffffffffffffffffffffffff169050919050565b600033905090565b611d1b83838360016128e3565b505050565b600080611d2c846128a6565b9050600073ffffffffffffffffffffffffffffffffffffffff168373ffffffffffffffffffffffffffffffffffffffff1614611d6e57611d6d818486612aa8565b5b600073ffffffffffffffffffffffffffffffffffffffff168173ffffffffffffffffffffffffffffffffffffffff1614611dff57611db06000856000806128e3565b6001600360008373ffffffffffffffffffffffffffffffffffffffff1673ffffffffffffffffffffffffffffffffffffffff168152602001908152602001600020600082825403925050819055505b600073ffffffffffffffffffffffffffffffffffffffff168573ffffffffffffffffffffffffffffffffffffffff1614611e82576001600360008773ffffffffffffffffffffffffffffffffffffffff1673ffffffffffffffffffffffffffffffffffffffff168152602001908152602001600020600082825401925050819055505b846002600086815260200190815260200160002060006101000a81548173ffffffffffffffffffffffffffffffffffffffff021916908373ffffffffffffffffffffffffffffffffffffffff160217905550838573ffffffffffffffffffffffffffffffffffffffff168273ffffffffffffffffffffffffffffffffffffffff167fddf252ad1be2c89b69c2b068fc378daa952ba7f163c4a11628f55a4df523b3ef60405160405180910390a4809150509392505050565b6000600d60008473ffffffffffffffffffffffffffffffffffffffff1673ffffffffffffffffffffffffffffffffffffffff168152602001908152602001600020905060005b81805490508110156120385782828281548110611fa057611f9f613a7b565b5b90600052602060002001540361202b578160018380549050611fc29190613dc0565b81548110611fd357611fd2613a7b565b5b9060005260206000200154828281548110611ff157611ff0613a7b565b5b9060005260206000200181905550818054806120105761200f613ee6565b5b60019003818190600052602060002001600090559055612038565b8080600101915050611f80565b50505050565b612058828260405180602001604052806000815250612b6c565b5050565b8060066000848152602001908152602001600020908161207c91906140c1565b507ff8e1a15aba9398e019f0b49df1a4fde98ee17ae345cb5f6b5e2c27f5033e8ce7826040516120ac91906130bc565b60405180910390a15050565b6040518060a001604052808481526020013373ffffffffffffffffffffffffffffffffffffffff1681526020013373ffffffffffffffffffffffffffffffffffffffff1681526020018273ffffffffffffffffffffffffffffffffffffffff16815260200183815250600b60008581526020019081526020016000206000820151816000015560208201518160010160006101000a81548173ffffffffffffffffffffffffffffffffffffffff021916908373ffffffffffffffffffffffffffffffffffffffff16021790555060408201518160020160006101000a81548173ffffffffffffffffffffffffffffffffffffffff021916908373ffffffffffffffffffffffffffffffffffffffff16021790555060608201518160030160006101000a81548173ffffffffffffffffffffffffffffffffffffffff021916908373ffffffffffffffffffffffffffffffffffffffff16021790555060808201518160040155905050505050565b6000600c60008473ffffffffffffffffffffffffffffffffffffffff1673ffffffffffffffffffffffffffffffffffffffff168152602001908152602001600020905060005b8180549050811015612323578282828154811061228b5761228a613a7b565b5b9060005260206000200154036123165781600183805490506122ad9190613dc0565b815481106122be576122bd613a7b565b5b90600052602060002001548282815481106122dc576122db613a7b565b5b9060005260206000200181905550818054806122fb576122fa613ee6565b5b60019003818190600052602060002001600090559055612323565b808060010191505061226b565b50505050565b600073ffffffffffffffffffffffffffffffffffffffff168273ffffffffffffffffffffffffffffffffffffffff160361239b5760006040517f64a0ae920000000000000000000000000000000000000000000000000000000081526004016123929190613223565b60405180910390fd5b60006123a983836000611d20565b9050600073ffffffffffffffffffffffffffffffffffffffff168173ffffffffffffffffffffffffffffffffffffffff160361241c57816040517f7e27328900000000000000000000000000000000000000000000000000000000815260040161241391906130bc565b60405180910390fd5b8373ffffffffffffffffffffffffffffffffffffffff168173ffffffffffffffffffffffffffffffffffffffff1614612490578382826040517f64283d7b000000000000000000000000000000000000000000000000000000008152600401612487939291906139e1565b60405180910390fd5b50505050565b600073ffffffffffffffffffffffffffffffffffffffff168273ffffffffffffffffffffffffffffffffffffffff160361250757816040517f5b08ba180000000000000000000000000000000000000000000000000000000081526004016124fe9190613223565b60405180910390fd5b80600560008573ffffffffffffffffffffffffffffffffffffffff1673ffffffffffffffffffffffffffffffffffffffff16815260200190815260200160002060008473ffffffffffffffffffffffffffffffffffffffff1673ffffffffffffffffffffffffffffffffffffffff16815260200190815260200160002060006101000a81548160ff0219169083151502179055508173ffffffffffffffffffffffffffffffffffffffff168373ffffffffffffffffffffffffffffffffffffffff167f17307eab39ab6107e8899845ad3d59bd9653f200f220920489ca2b5937696c31836040516125f89190613088565b60405180910390a3505050565b60008373ffffffffffffffffffffffffffffffffffffffff163b11156127b6578273ffffffffffffffffffffffffffffffffffffffff1663150b7a02612649611d06565b8685856040518563ffffffff1660e01b815260040161266b94939291906141e8565b6020604051808303816000875af19250505080156126a757506040513d601f19601f820116820180604052508101906126a49190614249565b60015b61272b573d80600081146126d7576040519150601f19603f3d011682016040523d82523d6000602084013e6126dc565b606091505b50600081510361272357836040517f64a0ae9200000000000000000000000000000000000000000000000000000000815260040161271a9190613223565b60405180910390fd5b805181602001fd5b63150b7a0260e01b7bffffffffffffffffffffffffffffffffffffffffffffffffffffffff1916817bffffffffffffffffffffffffffffffffffffffffffffffffffffffff1916146127b457836040517f64a0ae920000000000000000000000000000000000000000000000000000000081526004016127ab9190613223565b60405180910390fd5b505b50505050565b606060405180602001604052806000815250905090565b60606127de82611c41565b5060006127e96127bc565b905060008151116128095760405180602001604052806000815250612834565b8061281384612b88565b604051602001612824929190613ec2565b6040516020818303038152906040525b915050919050565b60007f01ffc9a7000000000000000000000000000000000000000000000000000000007bffffffffffffffffffffffffffffffffffffffffffffffffffffffff1916827bffffffffffffffffffffffffffffffffffffffffffffffffffffffff1916149050919050565b60006002600083815260200190815260200160002060009054906101000a900473ffffffffffffffffffffffffffffffffffffffff169050919050565b808061291c5750600073ffffffffffffffffffffffffffffffffffffffff168273ffffffffffffffffffffffffffffffffffffffff1614155b15612a5057600061292c84611c41565b9050600073ffffffffffffffffffffffffffffffffffffffff168373ffffffffffffffffffffffffffffffffffffffff161415801561299757508273ffffffffffffffffffffffffffffffffffffffff168173ffffffffffffffffffffffffffffffffffffffff1614155b80156129aa57506129a88184611acb565b155b156129ec57826040517fa9fbf51f0000000000000000000000000000000000000000000000000000000081526004016129e39190613223565b60405180910390fd5b8115612a4e57838573ffffffffffffffffffffffffffffffffffffffff168273ffffffffffffffffffffffffffffffffffffffff167f8c5be1e5ebec7d5bd14f71427d1e84f3dd0314c0f7b2291e5b200ac8c7c3b92560405160405180910390a45b505b836004600085815260200190815260200160002060006101000a81548173ffffffffffffffffffffffffffffffffffffffff021916908373ffffffffffffffffffffffffffffffffffffffff16021790555050505050565b612ab3838383612c56565b612b6757600073ffffffffffffffffffffffffffffffffffffffff168373ffffffffffffffffffffffffffffffffffffffff1603612b2857806040517f7e273289000000000000000000000000000000000000000000000000000000008152600401612b1f91906130bc565b60405180910390fd5b81816040517f177e802f000000000000000000000000000000000000000000000000000000008152600401612b5e929190614276565b60405180910390fd5b505050565b612b768383612d17565b612b836000848484612605565b505050565b606060006001612b9784612e10565b01905060008167ffffffffffffffff811115612bb657612bb5613559565b5b6040519080825280601f01601f191660200182016040528015612be85781602001600182028036833780820191505090505b509050600082602001820190505b600115612c4b578080600190039150507f3031323334353637383961626364656600000000000000000000000000000000600a86061a8153600a8581612c3f57612c3e613d60565b5b04945060008503612bf6575b819350505050919050565b60008073ffffffffffffffffffffffffffffffffffffffff168373ffffffffffffffffffffffffffffffffffffffff1614158015612d0e57508273ffffffffffffffffffffffffffffffffffffffff168473ffffffffffffffffffffffffffffffffffffffff161480612ccf5750612cce8484611acb565b5b80612d0d57508273ffffffffffffffffffffffffffffffffffffffff16612cf583611cc9565b73ffffffffffffffffffffffffffffffffffffffff16145b5b90509392505050565b600073ffffffffffffffffffffffffffffffffffffffff168273ffffffffffffffffffffffffffffffffffffffff1603612d895760006040517f64a0ae92000000000000000000000000000000000000000000000000000000008152600401612d809190613223565b60405180910390fd5b6000612d9783836000611d20565b9050600073ffffffffffffffffffffffffffffffffffffffff168173ffffffffffffffffffffffffffffffffffffffff1614612e0b5760006040517f73c6ac6e000000000000000000000000000000000000000000000000000000008152600401612e029190613223565b60405180910390fd5b505050565b600080600090507a184f03e93ff9f4daa797ed6e38ed64bf6a1f0100000000000000008310612e6e577a184f03e93ff9f4daa797ed6e38ed64bf6a1f0100000000000000008381612e6457612e63613d60565b5b0492506040810190505b6d04ee2d6d415b85acef81000000008310612eab576d04ee2d6d415b85acef81000000008381612ea157612ea0613d60565b5b0492506020810190505b662386f26fc100008310612eda57662386f26fc100008381612ed057612ecf613d60565b5b0492506010810190505b6305f5e1008310612f03576305f5e1008381612ef957612ef8613d60565b5b0492506008810190505b6127108310612f28576127108381612f1e57612f1d613d60565b5b0492506004810190505b60648310612f4b5760648381612f4157612f40613d60565b5b0492506002810190505b600a8310612f5a576001810190505b80915050919050565b6040518060a0016040528060008152602001600073ffffffffffffffffffffffffffffffffffffffff168152602001600073ffffffffffffffffffffffffffffffffffffffff168152602001600073ffffffffffffffffffffffffffffffffffffffff168152602001600081525090565b6000604051905090565b600080fd5b600080fd5b60007fffffffff0000000000000000000000000000000000000000000000000000000082169050919050565b61301d81612fe8565b811461302857600080fd5b50565b60008135905061303a81613014565b92915050565b60006020828403121561305657613055612fde565b5b60006130648482850161302b565b91505092915050565b60008115159050919050565b6130828161306d565b82525050565b600060208201905061309d6000830184613079565b92915050565b6000819050919050565b6130b6816130a3565b82525050565b60006020820190506130d160008301846130ad565b92915050565b600081519050919050565b600082825260208201905092915050565b60005b838110156131115780820151818401526020810190506130f6565b60008484015250505050565b6000601f19601f8301169050919050565b6000613139826130d7565b61314381856130e2565b93506131538185602086016130f3565b61315c8161311d565b840191505092915050565b60006020820190508181036000830152613181818461312e565b905092915050565b613192816130a3565b811461319d57600080fd5b50565b6000813590506131af81613189565b92915050565b6000602082840312156131cb576131ca612fde565b5b60006131d9848285016131a0565b91505092915050565b600073ffffffffffffffffffffffffffffffffffffffff82169050919050565b600061320d826131e2565b9050919050565b61321d81613202565b82525050565b60006020820190506132386000830184613214565b92915050565b61324781613202565b811461325257600080fd5b50565b6000813590506132648161323e565b92915050565b6000806040838503121561328157613280612fde565b5b600061328f85828601613255565b92505060206132a0858286016131a0565b9150509250929050565b6132b3816130a3565b82525050565b60006132c4826131e2565b9050919050565b6132d4816132b9565b82525050565b6132e381613202565b82525050565b60a0820160008201516132ff60008501826132aa565b50602082015161331260208501826132cb565b50604082015161332560408501826132cb565b50606082015161333860608501826132da565b50608082015161334b60808501826132aa565b50505050565b600060a08201905061336660008301846132e9565b92915050565b60008060006060848603121561338557613384612fde565b5b600061339386828701613255565b93505060206133a486828701613255565b92505060406133b5868287016131a0565b9150509250925092565b600081519050919050565b600082825260208201905092915050565b6000819050602082019050919050565b60a08201600082015161340160008501826132aa565b50602082015161341460208501826132cb565b50604082015161342760408501826132cb565b50606082015161343a60608501826132da565b50608082015161344d60808501826132aa565b50505050565b600061345f83836133eb565b60a08301905092915050565b6000602082019050919050565b6000613483826133bf565b61348d81856133ca565b9350613498836133db565b8060005b838110156134c95781516134b08882613453565b97506134bb8361346b565b92505060018101905061349c565b5085935050505092915050565b600060208201905081810360008301526134f08184613478565b905092915050565b613501816132b9565b82525050565b600060208201905061351c60008301846134f8565b92915050565b60006020828403121561353857613537612fde565b5b600061354684828501613255565b91505092915050565b600080fd5b600080fd5b7f4e487b7100000000000000000000000000000000000000000000000000000000600052604160045260246000fd5b6135918261311d565b810181811067ffffffffffffffff821117156135b0576135af613559565b5b80604052505050565b60006135c3612fd4565b90506135cf8282613588565b919050565b600067ffffffffffffffff8211156135ef576135ee613559565b5b6135f88261311d565b9050602081019050919050565b82818337600083830152505050565b6000613627613622846135d4565b6135b9565b90508281526020810184848401111561364357613642613554565b5b61364e848285613605565b509392505050565b600082601f83011261366b5761366a61354f565b5b813561367b848260208601613614565b91505092915050565b6000806040838503121561369b5761369a612fde565b5b600083013567ffffffffffffffff8111156136b9576136b8612fe3565b5b6136c585828601613656565b92505060206136d6858286016131a0565b9150509250929050565b6136e98161306d565b81146136f457600080fd5b50565b600081359050613706816136e0565b92915050565b6000806040838503121561372357613722612fde565b5b600061373185828601613255565b9250506020613742858286016136f7565b9150509250929050565b600067ffffffffffffffff82111561376757613766613559565b5b6137708261311d565b9050602081019050919050565b600061379061378b8461374c565b6135b9565b9050828152602081018484840111156137ac576137ab613554565b5b6137b7848285613605565b509392505050565b600082601f8301126137d4576137d361354f565b5b81356137e484826020860161377d565b91505092915050565b6000806000806080858703121561380757613806612fde565b5b600061381587828801613255565b945050602061382687828801613255565b9350506040613837878288016131a0565b925050606085013567ffffffffffffffff81111561385857613857612fe3565b5b613864878288016137bf565b91505092959194509250565b600081519050919050565b600082825260208201905092915050565b6000819050602082019050919050565b60006138a883836132aa565b60208301905092915050565b6000602082019050919050565b60006138cc82613870565b6138d6818561387b565b93506138e18361388c565b8060005b838110156139125781516138f9888261389c565b9750613904836138b4565b9250506001810190506138e5565b5085935050505092915050565b6000602082019050818103600083015261393981846138c1565b905092915050565b6000806040838503121561395857613957612fde565b5b600061396685828601613255565b925050602061397785828601613255565b9150509250929050565b7f4e487b7100000000000000000000000000000000000000000000000000000000600052602260045260246000fd5b600060028204905060018216806139c857607f821691505b6020821081036139db576139da613981565b5b50919050565b60006060820190506139f66000830186613214565b613a0360208301856130ad565b613a106040830184613214565b949350505050565b7f4e487b7100000000000000000000000000000000000000000000000000000000600052601160045260246000fd5b6000613a52826130a3565b9150613a5d836130a3565b9250828201905080821115613a7557613a74613a18565b5b92915050565b7f4e487b7100000000000000000000000000000000000000000000000000000000600052603260045260246000fd5b6000613ab5826130a3565b91507fffffffffffffffffffffffffffffffffffffffffffffffffffffffffffffffff8203613ae757613ae6613a18565b5b600182019050919050565b7f4f6e6c7920746865206f776e65722063616e20726573656c6c20746865204e4660008201527f5400000000000000000000000000000000000000000000000000000000000000602082015250565b6000613b4e6021836130e2565b9150613b5982613af2565b604082019050919050565b60006020820190508181036000830152613b7d81613b41565b9050919050565b7f5072696365206d7573742062652067726561746572207468616e207a65726f00600082015250565b6000613bba601f836130e2565b9150613bc582613b84565b602082019050919050565b60006020820190508181036000830152613be981613bad565b9050919050565b60006040820190508181036000830152613c0a818561312e565b9050613c1960208301846130ad565b9392505050565b7f506c65617365207375626d6974207468652061736b696e67207072696365207460008201527f6f20636f6d706c65746520746865207075726368617365000000000000000000602082015250565b6000613c7c6037836130e2565b9150613c8782613c20565b604082019050919050565b60006020820190508181036000830152613cab81613c6f565b9050919050565b7f53656c6c65722063616e6e6f7420627579207468656972206f776e204e465400600082015250565b6000613ce8601f836130e2565b9150613cf382613cb2565b602082019050919050565b60006020820190508181036000830152613d1781613cdb565b9050919050565b6000613d29826130a3565b9150613d34836130a3565b9250828202613d42816130a3565b91508282048414831517613d5957613d58613a18565b5b5092915050565b7f4e487b7100000000000000000000000000000000000000000000000000000000600052601260045260246000fd5b6000613d9a826130a3565b9150613da5836130a3565b925082613db557613db4613d60565b5b828204905092915050565b6000613dcb826130a3565b9150613dd6836130a3565b9250828203905081811115613dee57613ded613a18565b5b92915050565b7f4f6e6c79206f776e65722063616e2063616c6c20746869732066756e6374696f60008201527f6e00000000000000000000000000000000000000000000000000000000000000602082015250565b6000613e506021836130e2565b9150613e5b82613df4565b604082019050919050565b60006020820190508181036000830152613e7f81613e43565b9050919050565b600081905092915050565b6000613e9c826130d7565b613ea68185613e86565b9350613eb68185602086016130f3565b80840191505092915050565b6000613ece8285613e91565b9150613eda8284613e91565b91508190509392505050565b7f4e487b7100000000000000000000000000000000000000000000000000000000600052603160045260246000fd5b60008190508160005260206000209050919050565b60006020601f8301049050919050565b600082821b905092915050565b600060088302613f777fffffffffffffffffffffffffffffffffffffffffffffffffffffffffffffffff82613f3a565b613f818683613f3a565b95508019841693508086168417925050509392505050565b6000819050919050565b6000613fbe613fb9613fb4846130a3565b613f99565b6130a3565b9050919050565b6000819050919050565b613fd883613fa3565b613fec613fe482613fc5565b848454613f47565b825550505050565b600090565b614001613ff4565b61400c818484613fcf565b505050565b5b8181101561403057614025600082613ff9565b600181019050614012565b5050565b601f8211156140755761404681613f15565b61404f84613f2a565b8101602085101561405e578190505b61407261406a85613f2a565b830182614011565b50505b505050565b600082821c905092915050565b60006140986000198460080261407a565b1980831691505092915050565b60006140b18383614087565b9150826002028217905092915050565b6140ca826130d7565b67ffffffffffffffff8111156140e3576140e2613559565b5b6140ed82546139b0565b6140f8828285614034565b600060209050601f83116001811461412b5760008415614119578287015190505b61412385826140a5565b86555061418b565b601f19841661413986613f15565b60005b828110156141615784890151825560018201915060208501945060208101905061413c565b8683101561417e578489015161417a601f891682614087565b8355505b6001600288020188555050505b505050505050565b600081519050919050565b600082825260208201905092915050565b60006141ba82614193565b6141c4818561419e565b93506141d48185602086016130f3565b6141dd8161311d565b840191505092915050565b60006080820190506141fd6000830187613214565b61420a6020830186613214565b61421760408301856130ad565b818103606083015261422981846141af565b905095945050505050565b60008151905061424381613014565b92915050565b60006020828403121561425f5761425e612fde565b5b600061426d84828501614234565b91505092915050565b600060408201905061428b6000830185613214565b61429860208301846130ad565b939250505056fea2646970667358221220f313847636288446ae103c13317890e2bff893dc34c097491efd30763dc0df3f64736f6c63430008180033",
    "linkReferences": {},
    "deployedLinkReferences": {}
}